:020000040000FA
:100000008000016ED5E91EE93275E40475E40175DE
:10001000E4022275FF0275E40418271F02184E1A25
:10002000431A48007FB819C119C619CB19D019DA7B
:1000300019EE19F319F8FF0272455A2D1F57617610
:100040006520362E303700FF024A56EF901837935E
:10005000901900730A20364CE570FF22EF1FF570EF
:1000600022822D1C161311101002635A7581B0756F
:10007000FF03759E02121920023362021F0A1F90AD
:100080002040E47E019360F4A3FF543F30E509541F
:100090001FFEE493A360010ECF54E0B4E00EEF0323
:1000A000FAEEF9A320000DDAFDD9FB80D654C02565
:1000B000E0604B502620211FF85407240CC8C3339E
:1000C000C4540F4420C8834004F456800146F6DF30
:1000D000E480B0010204081002204080202500FACC
:1000E000200300F8200308C8C582C8CAC583CAF027
:1000F000E0000905DFE9DEE78085201A401E1F4089
:1001000003F68001F208DFF40218631E3F1E441E4E
:10011000491E4E1E531E58FF0201C0707419C010B4
:10012000E0C082C08375700AE5FF54CF4490F5FFAC
:1001300022E003150020E00C150036601500A0E059
:10014000062B004C601500B02015079081AA2116DF
:1001500090822D2004018541200401A86440040000
:1001600078200400B8401301CA62200901E0114060
:10017000040029200401945E200401E071200401A0
:10018000C183200401E817200401CDB520040186B5
:1001900096200401E8C7400400E3200401E942205E
:1001A0000401DCDE200401E9454004008420040150
:1001B000EEA0200401EB2F200400DC407201DB895B
:1001C000200901DB654004401D00EF404501C9AB3B
:1001D000200E01D9B4200401EFF3200401B9C4209A
:1001E0000401BEE9200401F026400400C1200401FE
:1001F000AAC6200401E998200401C95B200401F289
:10020000EF200400AC407701F10D200901F36140BB
:100210000400A6400400DA200401F425400400E4B0
:100220004004008D200401F50B20040196592004A0
:1002300001CD7F200400CC40D101F46C200901F5F0
:1002400052200401CE5F400440F901CE5420090041
:10025000CF401D01DDD1200901BE8A200401F569CE
:10026000200401BF75200401F590200401BCD34097
:100270000400BE200401F5A2200401BE9C2004015C
:10028000F5BA4004406D01DE0E200901F687200416
:1002900001DEA7200401F7384004004A200401F5DC
:1002A0006F200401DE1C200401F753400400C2400B
:1002B0000400CA4004412B01F844200901F31D2029
:1002C0000400EF413F01EF6A200901E5ED20040140
:1002D000F604200400E540D101F863200900E6405F
:1002E0004F01E0BB200901C47E200401E2EE20049E
:1002F00001A7D2200401990C200401FA3320040143
:10030000F9AD200400FA41A301A76D400940C700E0
:10031000ED40AE018097200E0180FB4004000020DC
:1003200004008140F406870B21429087C02004011D
:10033000B83B4004004D4004006620040191712048
:100340000401B86C200401A620200401B86F400409
:1003500000BF2004203B034290AD94200401A5FB84
:1003600020040180AE20040186C6200401800720FD
:100370000400AF400E00C0401801C136200E01C27B
:100380003C400400552004019404200401AD3920B0
:100390000401C292400400DF200401AC9E2004014D
:1003A000C2F0200401A51B200401C7132004019200
:1003B000D1200401CA582004008C406D01CD412099
:1003C0000901CD4F200400BB403601CC2A20090191
:1003D000CDCB200401CBDC200400CE40B300CF40C5
:1003E000C201CF62200E01CFB1200401CD5C2004F8
:1003F00001916A200401D01420040093404F01B100
:1004000032200900A6406301D68B200901D699202D
:100410000401D70840040031400400F3200401B770
:100420007420040194E8200400D9403601B58C20E2
:10043000090187F7200401B9AB200401B89D20040D
:10044000008B405401B17E2009018AA7200401D904
:10045000864004008E400400A4200401B7C7200495
:1004600000B6409001D9D0200901D9EC200401B791
:100470006B2004018B64200400BB412101BA2520BC
:100480000901B7C4200400BA407701B76E20090102
:100490008CB9200400DA40EF01B0734009009F20BE
:1004A0000401C3702004019F75200400DF401D007B
:1004B000D5410801C515200E01AC48200401E12FEB
:1004C000200401D022200401E1384004402C01E145
:1004D000DB200901E229200401D78D200401BBCDD6
:1004E000200400E240F400E24171018A78200E010C
:1004F000D849200401B8EA2004018046200400E223
:10050000413000C9401D01BE2D200E01BDD2200486
:1005100001E27F20040095403B01BBA8200901A90E
:100520003F200400A841A801A695200901A6632048
:10053000042270034290AA872004018C7C200400CE
:10054000AB421601AA27200901A759200406AA6C6C
:10055000212C90B8A4200401BB884004007720041B
:1005600001BCAA200401ADBD20040187B72004010D
:10057000BCAB200401B52E2004018936200401B152
:10058000A7200400C6402200C6402201B37B200EF3
:10059000018FD920040187B4200401903820040180
:1005A000CD7D200401D19C40040089200401DF7F1F
:1005B000200401B202200401ED4F400400BE2004DB
:1005C00001EE204004404F01A0044009009940047E
:1005D000403101F10B200901CD5F200401F28E4072
:1005E0000400A3200401F300200401CF25400400EF
:1005F00029200401F39E200401D15E2004242D0350
:100600002C90DCFB200401DBE5200401F6604004B3
:1006100000802004018D4D2004018FEA2004009FFA
:1006200020951F00C2D5E830E70FB2D5E4C39BFB8D
:10063000E49AFAE499F9E498F8EC30E717B2D512A5
:100640001EC612012C31E0041801800320111F3056
:10065000D50DE4C39FFFE49EFEE49DFDE49CFC22D7
:1006600078B0E4F6D8FD9000007F007E10E4F01A28
:10067000A3DFFCDEFA904802A3E583C39420401177
:10068000FEAF829020000E0FE48002801B46AC1764
:100690001860223241707045765363686564756CEA
:1006A000657200B1F71E1700E00100011901E000BA
:1006B00000E0020A0032601460250003200A60088E
:1006C00002000005200AA00C001E2008A00A000A53
:1006D0002008A0000055E005000033E00600008877
:1006E000E005001F3F241E16110E0B090705040329
:1006F0000201F0C8A791776760463835323024226E
:10070000201400010C01020203030404050506067F
:100710000707207EE0130019871967196C197B19E8
:100720008019851CE11CE603710002000701010726
:1007300001FFE00C0007000D45DA000D403040528B
:100740000C020C00013F3F3F0404044040404010B5
:1007500020310E4103C0004103BF00E0020200004F
:10076000144340060802120FE0010200095440053C
:10077000010AA520051F120B00E00502120C120F42
:100780000206074108F9060114004108F801410872
:10079000F601C11401190C00011700C12941415D86
:1007A000004141522003005B2003005C20030459F8
:1007B000FF4339282068074239260000413FFD40A9
:1007C0006503121101B0405201130040050094402E
:1007D000580313BC01B020F90EC102412E8600411E
:1007E0002F10FF412F0800C1200900112003001223
:1007F0002003120901C105412E8500C1174147D0D0
:1008000000C135433D5B205502413D5A2003045E43
:10081000004303B6200D084303B30103B643450369
:10082000400B1B45000145034230D998074146FB68
:10083000024146FA0D4146FC08602038B542DBC152
:10084000E3E00D00202302D50900E0150002503B33
:10085000D2E007201AC11FC118C11AC10E015800E9
:10086000C10BC10C41466C0542238C984041238E3C
:10087000205201234BE0072FE00700074320009F91
:100880000100502040BDE0030007016127260E0053
:100890000201229002020E062287040407040102CC
:1008A00020250A0400060805040208031404200B8E
:1008B0000614050108090805400E0005600E0E002B
:1008C0000600140802020A0A080203010008401385
:1008D0000008601309010800140A020D000A0A2228
:1008E0000D200408080B0A0A01050C0E0A4022001C
:1008F0000A4022000A4022080E000A0D110E0208CA
:10090000042009205E000E4018000E601801010549
:10091000200909020F0E1211000C0C0E11402200CA
:1009200011402200114022001140220011402202F9
:1009300011000A20040402050E12124022051202C0
:100940000C0F00124027001240270012402700120F
:1009500040270012402701120220540712000C0009
:100960001413020C219F0002418101021022900207
:100970000209012004060B001314000710200900CF
:100980000A400E2090001420BD2004000D400E00EF
:100990000E4009071001006024281E0222D303061E
:1009A00002FF004003040301FF0023200F212D015B
:1009B000001320030302000101400B0346277501C9
:1009C00021521B04024227FB1D22412AAD00412C6B
:1009D0005B01412AB300432AB0012A6E432AA420B6
:1009E0000502410AA921B902095FED2324E01200A2
:1009F0001F7F522D605E858E595586725A739F7087
:100A000084805B30716C7A442C605E559F6C4E2DF7
:100A1000510086201B201980181F7A4F2D72012D3E
:100A20006012012C6004012D510E020701492C6651
:100A30004C6966656C696E65004A1A2D2530037134
:100A40000580035B035A01608A2C6F20012001435B
:100A50006F6E74726F6C20BFE017000F7106710526
:100A6000416C61726D2053656E736F72E0152F01DA
:100A70007107C02D0374616D70252EE014000A41CA
:100A80002CFB00412D24FF412D8120070088200FE1
:100A900000652007045FFF412CFA200B006420034F
:100AA00000F9200F008A200300892023002F200F47
:100AB00023FF002C240F012C5E2003095F01C138A5
:100AC000413421004147200D01475F2003201901D7
:100AD00047F8440E0313C1006E245B06142A006E0F
:100AE000040101247E0D142F0013E00C02143103C5
:100AF0007102070064DB0106074021033D0013FF7C
:100B000080210042232F0136EF20AF0241369C2086
:100B100003040201423CF1200C053CF00045427602
:100B20002016000020070071200520130141BD2080
:100B30000300B8200300B5200300B9200300BC2047
:100B40000304B20041432220030421004446AE20A6
:100B500025208B00FD203E044D005B3C31200DE044
:100B60000F0009413C30FF414774FF4247212C0AE6
:100B7000C142C144413AC100503A4DE0072F0A45F5
:100B80003A5D00010204804739D9A01A024339D6E0
:100B900020090241420C2003000820030007200323
:100BA000030B00424222E6024242054019257C0224
:100BB0000000012003020017062004010018400570
:100BC00000066005000160050008600501010140A4
:100BD00023010115202140624005000B400500065D
:100BE00060050008600501010D20160200010E409D
:100BF00017000123432005000F20040200040540D4
:100C00003B01040640590204070820112375200007
:100C100000036017010108600C40160100014383C6
:100C2000020001124011010803409A010122201024
:100C300002000816401E0008400402000116404D44
:100C400000066005010509435601050A201601004A
:100C500005602F0005407C0200061B406B00016010
:100C60000501061C46D801061D4005010705404246
:100C700001081E400B01082020280200081F200444
:100C800002000821200402000811603560050008F8
:100C90006077010619401101061E201C0100066044
:100CA0002F01061A40410106144083000760050029
:100CB00008606501072420220100086011E7058211
:100CC000018826E00600E300751F496E76616C69B5
:100CD000642067726F7570001DA91DAE1DB31DB82D
:100CE0001DE01DE51DEA00011DFE1F1E031D451D23
:100CF0004F1D541D591D5E1D631D681D721C3C1C3B
:100D00004B1C501C551C5A1E1C1E211F1E261E2B20
:100D10004412401C41B76B2F6B4D54741A9D1AA29C
:100D20001AD91E081E0D1E301E351E621F1E671E9C
:100D30006C1E711E761E7B19B21BE71BFB1D3B5AF6
:100D4000011E3A80031E5DE4FD7C0CAB050C0DEB2F
:100D500090181E938F828E83F00FBF21B704DCECB6
:100D60007F0322400E28F9067406F01276EC044048
:100D7000040AA3E4F0EF2404F582E43EF5601911BF
:100D800061F0220246F1FFFFE709F608DFFA80462C
:100D9000E7092F200AFA803E88828C83E709F0A3B6
:100DA000200B0132E3801B0178E3801B0070401BA5
:100DB00000E3801B076489828A83E0A3F640330046
:100DC00058800B603F1F4C80D280FA80C680D48050
:100DD0006980F28033801080A680EA809A80A880A3
:100DE000DA80E280CA800033402B00EC4FB74FB36B
:100DF00003CCC583CC8FB3400900DF4FB3000D4057
:100E0000202FB7205907F9ECFAA9F0EDFB22401189
:100E100002ECFAE0E00B3104EADEE880DB401F2060
:100E200031207F05F980CC88F0EF305D0F4E60C334
:100E300088F0ED2402B4040050B9F582EB80090C6F
:100E4000AF232345822390285173BB010640350907
:100E5000E0225002E722BBFE02E360640EE493222C
:100E6000BB010CE58229F582E5833AF5401E0506B3
:100E7000E92582F8E62022600801E222E0011C60F8
:100E80002C0009404508F8E028F022500327F720FD
:100E9000260905F8E328F3228A838982307800281E
:100EA000204E010FF8E0013260270309C582292096
:100EB000130126F6202D600B0BE22582F222F8EAC0
:100EC0002583F583E96032609A2051000240500684
:100ED00001F322F8BB010DE0014400E82019408C29
:100EE00000C840400005209E0EC8F222EF8DF0A4FD
:100EF000A8F0CF8CF0A428CE200A082EFE22BC0039
:100F00000BBE002920171984FFADF022E4CCF87540
:100F1000F008EF2FFFEE33FEEC33FCEE9DEC984033
:100F200005200614FE0FD5F0E9E4CEFD22EDF8F51C
:100F3000F0EE8420D21CFEADF080290EED33FD4092
:100F400007985006D5F0F222C398FD202803EA2224
:100F5000C2D52B8900094B9C019DFD2B6803EE3007
:100F6000E715400C6B7B031229D8C38B7F2B9406AB
:100F700029D830D507C3E460180422C5F0F8A320AF
:100F8000F9200613E582158270021583E038F022FD
:100F9000A3F8E0C5F025F0F0E0001303C838F0E84E
:100FA000212F000A415103E0F5F0A3219B0506879C
:100FB000F009E71921270607E3F5F009E319A1A4D1
:100FC00003F5F0740141A90010E10114A0300009FB
:100FD000210E03F886F00841B0000A400B03E2F549
:100FE000F00821B401832A415B205400E940370016
:100FF0000D21810BC582C5833AC583022A63501136
:10100000200E0BF808E5F026F618F5F0E5823641DB
:1010100057801308E225F0F5F0F218E23541A0A060
:101020006C2049207D401802E49338C0AF03F0E5FE
:10103000F0A3419603F709A7F040AF0606F3E5F0E9
:1010400009F31941B90011A037224E00E8A026404B
:10105000A504C8F608A6F020D9600B03F2E5F00855
:1010600021C41F2BFFEE3AFEED39FDEC38FC22C304
:10107000EF9BFFEE9AFEED99FDEC98FC22E88FF0D5
:10108000A4CC8B05F0A42CFCE98E4005028AF0ED7F
:10109000200B00EA200B02CDA8F02017062DCC383B
:1010A00025F0FDE92025052CCD35F0FCEB201803BB
:1010B000FEA9F0EB200F10CFC5F02ECD39FEE43C99
:1010C000FCEAA42DCE35F0FD2009062275F0087546
:1010D0008200820E1FCD33CDCC33CCC58233C58286
:1010E0009BED9AEC99E58298400CF582EE9BFEED23
:1010F0009AFDEC99FC21F81FD6E4CEFBE4CDFAE48E
:10110000CCF9A88222B800C1B90059BA002DEC8BE5
:10111000F084CFCECDFCE5F003CBF97818804C22DB
:1011200034225E12EB33FB10D703994004EB99FB9A
:101130000FD8E5E4F9FA22E0052015C933C910D724
:10114000059BE99A4007EC9BFCE99AF90FD8E0E48B
:10115000C9206000FB209A0010E0004A209715C8C3
:1011600033C810D7079BEC9AE899400AED9BFDEC39
:101170009AFCE899F820931FDAE4CDFBE4CCFAE47A
:10118000C8F922EF5BFFEE5AFEED59FDEC58FC2248
:10119000EF4BFFEE4AFEED4902FDEC48214482810F
:1011A00082961522EB9FF5F0EA9E42F0E99D42F00F
:1011B000EC6480C864809845F0E0041501E89C2048
:1011C0001011E8600FECC313FCED13FDEE13FEEFFE
:1011D00013FFD8F1401202EFC333433C80E02012EA
:1011E00002BB010742A809022DC65005E9F80232E8
:1011F00070438B2007007C801500D22265E101F846
:1012000040250007428E6027A009007CE0031F20D4
:101210002F804F012E1E804F00B2A04F00BE2069CC
:10122000E00349201FA03F2021A00910BE22E0FCBE
:10123000A3E0FDA3E0FEA3E0FF22E493FC22A00ACA
:10124000FD740293FE740393FF22E0237D06F9A34D
:10125000E0FAA3E0FBE0064B012DE2C04B0088E082
:10126000004B0095E002951932A2ECF0A3EDF0A33B
:10127000EEF0A3EFF022A8828583F0D083D0821213
:101280002E41E0000201E473257805C583C5F0C551
:101290008345CF00F0E0020B206CA0D2002A80D260
:1012A00000CAA0D200E32019E004D2002AC08620A0
:1012B00021A0D206E322F5F0C582A423A52059007F
:1012C000A4451A0822A42582F582E5F035252602D8
:1012D00022E0FB60D002F922F820092007E403474E
:1012E00000FA245C03EBF0A3EA23EC24F80193FB5F
:1012F000210C00FA210C00F92075A08F00B6808F18
:1013000000FC808F01330E61B2042EDFBB011A4056
:10131000090ED0F0D0E0F8D0E0F9D0E0FAD0E0FB50
:10132000E8361C07F0022ED65016E9F840FCE00023
:1013300018563204023305BBFEE00D180017206E6C
:10134000E004E400B6C0E4207680E401330EE1025C
:101350006B407E0020E0010FE00E8400184244E064
:101360000D86E00F1A011722402F268C01701221E2
:101370000905700DA3A393F8200805F5828883E47E
:10138000732117076860EFA3A3A380DF4025E01057
:1013900024006C203C1003936D700C7404936E70E9
:1013A000067405936F60DD203620000180CA46EC8C
:1013B00003E473E56B619F006A419F09B56A048588
:1013C000826B2210AF06200602F56A22600503D266
:1013D000AF22EC24970BCCC5F0CCCDF8EFA4CEC552
:1013E000F02D448C06E8A42EC8C5F03D400A07EF56
:1013F000A4FFE5F028FEE4600C002245F208E208B4
:10140000B5F06BDFF58067400C00E6200C005E2035
:101410000C015A87800B0452DFF6804E200B4024CB
:101420000046200B0042489E200F04E0A3B5F03692
:10143000200F0032A00F22A102B5F0252038002194
:10144000401040494021001420100010C0106022BC
:101450000002381F0731C9808780E9809028BF17B4
:101460003E8015806E807E809D80B7808D80A380B9
:10147000518074803C0231D5422348C0264D42F24F
:1014800048B8203EC00A08B5F076DFE3DEE18070A0
:1014900040266024409E0462DFF4805E401146A72F
:1014A00040C70051207D004DC01040210040201059
:1014B000003C401060334022002E2033042A80027A
:1014C00080574015E00670E9010B14B5F006DFE423
:1014D000DEE280007FFFB5F0020F2240027F012292
:1014E0008031406BC096E0033006D5DFE5DEE38057
:1014F000CFE00924E004C600AF605600A9C94E0041
:10150000ABA94C0198F5C94C008E894C063111737A
:10151000EF4E6012497403EDBB010B40552A3C337A
:10152000710A2289F05007F709DFFCA9F026E701CC
:10153000FCF380091FE6FC08E6FD08E6FE08E6FF6E
:1015400022E2FC08E2FD08E2FE08E2FF22E6FB08D8
:10155000E6F908E6FA0E08E6CBF822E2FB08E2F923
:1015600008E2FA08E2200C01E49342AF00F922AA53
:1015700000FA228318FB22ECF608EDF608EEF608D6
:10158000EFF622ECF208EDF208EEF208EFF262E676
:1015900003E493F60822DC200400024004050393D0
:1015A000F674047382D900F240182004000240044B
:1015B000020393F220184073207009F922EBF60819
:1015C000EAF608E9F66078207520111DF208EAF2C3
:1015D00008E9F222AD07901217E054FCF0E0FFEDAD
:1015E00054307E0060027E02EF4E20134010067ED3
:1015F0000030E0027E01800F10229003C87402F0D8
:101600009003BFE0FF121DC77120400F1905F022A3
:1016100075FF0275E404E4F5E4F1C7C330E001D3DB
:101620004017E5E630E012204207E0540C600A1251
:1016300048A2600A1FF7F0C213F1C730E037E5E6B1
:1016400054036401702F121A2F12685F401E90120B
:101650003FE0600AE01414F07005121ED4D1A3908C
:101660001215E020E002815712492A2004051ED4F9
:10167000D213D1A3600815126BD49003C1EFF09080
:101680001200E0B47A14901214E0B49C0D20120DF4
:10169000E0FF64056004EFB40330E49003C720A2C8
:1016A00009C7E0FFC394805013E42F2C10013412BB
:1016B0002ACC60140304F080E3203C01747A2042B9
:1016C0001A14749CF0D20F121BD34003121BCE7B52
:1016D000017A1279107D017F01121BC9600C001183
:1016E000200C0021C00C0012200C0022200C202411
:1016F0000C297F0212783F901229E0B40105202EB8
:101700000470C8121A34209902121A2A208907EF8D
:10171000F01219A8121A25200A0DE0FFB406028063
:101720000C3013047F028005601008121DC2EF24E4
:10173000FFB3923521331553E6BF123F3F6002D10C
:10174000A3124A33121A3E123832300F0A607A0757
:101750002B7D10F16F121A8E41098152050E203532
:101760000B714B201C092F79191219DF90122AE0F6
:101770002199018003405C1F01D1D9D2AF203502ED
:10178000A16F121B6A1244E0121DCC121BB040F272
:101790009003C0E06041121A1F5CEF7006F1E794FD
:1017A000004035E51470FCE51520E502F146121BFA
:1017B00079EF70FAD1B35004D102C5500520C601AB
:1017C0003CEC402F06B40204E4FF8009600A0003E9
:1017D000401610492E121A52E51530E1A31276CAAE
:1017E0004002E4F0403F1305D1851262991276F36E
:1017F000EFC0E0D1939003C3E0FDD020DC0F199E31
:1018000081EC1249D51249A65002D1F5D1AB20770F
:101810004048076052902E86E0704CE002890040FC
:10182000E00389006B20B7E00C8C017011204304A9
:10183000600C1238234240044408F08008404F03F3
:10184000FF1248E8A0E90E1C2DF1FD12380BEF70D5
:1018500022F1CFEF6005226A01803620330B703110
:10186000126A87EF702B1247C0EF226904231238E7
:101870001C8022660417E020E2174028000DC0F704
:1018800001E4FF20F7223204C6F020100520E81101
:1018900080221258619003B9E0FEEFC39E4005EF2D
:1018A0009EFF40720DB9E0F4042FFF7406D39F50E1
:1018B00002C210410C0024E11B0C1F121BEC121A77
:1018C0007A124A21A16F9003C2E0FD75F0AA90033D
:1018D000CC122EAAED75F002A424BB08F9740335CE
:1018E000F0FA7B012241E60754FEF022F1D7B40161
:1018F00044DD0290000123E316B40007E493B4181A
:1019000002C322D3227F017E009017FCE4935EFE87
:101910002019015F4E2243002240C61385AF82AEDC
:1019200083E4FD12629F8009121A61F146E433FFDD
:10193000202C0722E4FFD1D9EF6049222F10127921
:1019400023124E0C5009901223E0C394C040EC6067
:101950001300254013070F1249BE5FFFA3E0600389
:1019600002F460E68254624F04E4901221F0602990
:101970000623E0FD121B832221AF1F23125F1950A3
:1019800005C23112558EF1BF1265F3E5D120E0FB9F
:101990004315205315FEE4F510A2121692EDD32242
:1019A000C322900A43122ED6900A46EDF0E4A3F02B
:1019B000ED54FE200A02F0602F409002BF01286023
:1019C0001D00B6407C041D900A44E4210709122A38
:1019D00063900A47E02402F0400600FF202D03E058
:1019E0006F70D842D3600F08221268AD7F08021DC5
:1019F000BD233041264123000261230B03C6E07F53
:101A00000022C2AFEFF452152779029003C96A1D74
:101A10000D125879D3EF94C8EE22E4F514E1464054
:101A200025237403D19003CB29E0200520330070D7
:101A3000403E61F3201002C6740180060502F022C8
:101A40001237D7601B14B14A121A4D121A6B1219B1
:101A5000A3121B6FF13F700221107F22DD0F5890FF
:101A60000A11122ED67E007F09316CBF540D20085A
:101A7000000A200800A521310380027F0025171DE0
:101A8000EFF0F127E94A4B701D7F04FE316CEF2423
:101A900001FFE433FEC37401125E037F0050207720
:101AA0006023200400E022950E4CF1271276927AF2
:101AB0000A7917F17E900A1760BD20120B7811E9A0
:101AC0002407F9E43AFA900A14206D02E924082068
:101AD0000C02FEAF01218DE0002A203D0104A3206D
:101AE0000504600812195D204E805301701C20917E
:101AF0001804C006C374439404FE741412757DD098
:101B00000612797BE4FFFE1219622026210A041BCB
:101B100006F13F7F25E323F00A1A02121A0C12196C
:101B2000711276056225011B7E220F06FE4FFDA372
:101B3000E0FC4D200411FB4D600BEE5FFFEC5FFFFE
:101B4000EB5FF470031236F5221321A0021225E098
:101B500022CE05BAF0021C37E021BF09A42485F982
:101B6000740F35F07B0220A31BE4FCFD9045B112FD
:101B70002E1ED1EF514FEF6004D1FE80F7518E7FC2
:101B80000391C7600A4018052DC6781031AE2009B0
:101B90000131A9200408F12D51439045B59123202E
:101BA0000441E9201D0B08122D12E4E5C820E2FBD8
:101BB0008FEB22C70491299047C921A1200504E099
:101BC000602EF133202F0A47C9EFF071585132903F
:101BD0003FF14008200F10E05401F1AD60DCA3E0BC
:101BE000F460D7EF30E7D3E4201308F080CC5192B3
:101BF0007F9F31B22031063FF25141903FF74004C0
:101C000000F8206B013FF02028001B402D0016201B
:101C10001505E0FD541F240F22A805C413540744E2
:101C200080201101F022203904D731B27FFF203DFE
:101C30000047202E01EFF0400A609400AF8094022C
:101C4000303314808B00CA808209CAE020E002C2CF
:101C5000333033178097208E000B40600006208EB3
:101C60002017077158E4FF9129A233839B1F912904
:101C7000903FF5E0122FE33AB5043ABD143AC2158D
:101C80003AC7173AD7303ADC343AE1363AE61F37EA
:101C900000003ACF5354EF855480802F5355EF8086
:101CA000085355DF800353557F855590801D530D94
:101CB00056DF8556A080155357FE800D5357401EA2
:101CC0000157BF201E0C577F8557B07F0CDFFE22C7
:101CD0009042A32181029042A7223DE10287019117
:101CE000B22183201A216541830142A32183600E22
:101CF00008E480259042AAF1BE602039203307B65F
:101D0000E94A60121228F720FE029042A823A2009E
:101D10000123A20280DDE4200F0680D79125903FA9
:101D2000F42190052231B212723926402130214E21
:101D3000030A9047C8338903F14E70FCA0DC163BC0
:101D400092043B9A143B9F153BA4173BB4303BB91C
:101D5000343BBE363BC320DC043BAC43541060DC58
:101D60000C4355108008435520800343558060DCA8
:101D70000243562060DC06435701800D4357401E46
:101D8000015740201E01578020DC4063000C606337
:101D900007229045BAF09045B640E62005032DC6CF
:101DA000316F201103E06F6034E007EF601D60EFDA
:101DB0000145B620EF0345B6F12D402920CBC0C91F
:101DC00044B341C50DE4FFEFB4010443FE202253A8
:101DD000FEDF22E0024741B101D233221302067135
:101DE0005620050001221902037156272403CF90C3
:101DF00042AC40810342B0122EE10368E200F020C1
:101E00001EA07C0142AC207C0142AC207C0142B38C
:101E1000216800182295403507B6EF1229929042AA
:101E2000B1C16400E140860281297F2223807101D3
:101E300031B222EA0392903FF340B106903FF6E0C0
:101E40006402222291226E00142065003D208A0047
:101E50002A20030080200301A63120D105229047CB
:101E600091EFF0257602903FFE287C110209740F55
:101E7000F14674B9F0800CEF6404703F743D200D9E
:101E80000379F0518E202607E06007903FFDE0FFC8
:101E900024B801AB312065401220100BF070159072
:101EA0004792E0D39400400C42F5400C0414F080BB
:101EB000EBE422C000222481023F79F529080003C7
:101EC0004908043F79FE7F082908200804FB7F09A0
:101ED000F1A6200719F97F0BF1A6903FF9F19F6059
:101EE00006BEFF16BFFF13F1B550028004F1C828EB
:101EF00051073FF9E4F0A37440F06012000820CCD1
:101F0000047403F080064007000220AF6311163D01
:101F1000C7043DD2143DDA153DE2173DF8303E00CE
:101F2000343E08363E1022340C3DED75FF0153500F
:101F3000EF8550FD8047400A0351EF800E60070295
:101F4000DF80066007057F8551C9802C400A065254
:101F5000DF8552CA8021400A0353FE80166007A025
:101F60002D0153BF802D0A537F8553CB71587F11AC
:101F7000F13920D902EC31BA2162608610F7E024F1
:101F80007F6009047015F156740A800691D020070D
:101F90000058209E40AC01F1C8244009E0F46002E2
:101FA000C1ED903FFBE0508A0264104E28E2073FEB
:101FB000F8740EF0EF6420A00B000F200B0040A07F
:101FC0000B0010200B0080A00B0811F0E4B5070AED
:101FD000EEB40160310012A00D0002600D0013A0EC
:101FE0000D0004600D0014A00D0008600D0015A088
:101FF0000D0010600D0016A00D0020600D0017A050
:102000000D0040600D0218F0814A5806E5E430E109
:102010000675E4200201032228AC01E20F49B20058
:102020000A200900E049D00A36D9227E127F0BE44B
:10203000FDF1EDE202E527B700112FC222B002E464
:1020400021B222E6060521B2EF4420F5244D01031A
:10205000C1266822590092210600FD200700C822EF
:102060001005E0227F10F13921340F22126B9931D3
:102070006FEF600FF1D2E924E0F9E422DF05126B83
:10208000A1915A2266AF053D79589044ED4158041C
:1020900044EA122ED6261D01C007600A00B620169B
:1020A000061275D9D007815A6147004E225B047D24
:1020B00002021BC920632C7600F422E40DFEE0240A
:1020C000FE24FD2274FFF5F0122A7932B522402455
:1020D0007837E440BE0095204B0290392820B1317A
:1020E000F5047E0029F9EE472203E4FDAB05201834
:1020F00002EB61D4434628312C960575E40175E462
:1021000002EC01A389E000C991F115126A6AEF702F
:10211000087FA07E0FFDFC01BD126AA1904153EF24
:10212000F049E8064067E0605A313429751F415391
:10213000E014FDE5F0A805088005C333CE33CED802
:10214000F9FF312D311F904154122DE2C00005C01E
:1021500001C002C003602606FF74107E00A807E0DD
:1021600002281FEE3395E0FDFC3125122BA6D0038B
:10217000D002D001D000122B8B80283134AFF07EFA
:1021800000312D2A9505415BE0FF600F20B606FE69
:10219000FB7AF47901F8202A1F80087F007ED07D29
:1021A000077C00311F31477E417FB7C006C0073131
:1021B00017D1E5D007D00671A516126A7BEF703DE6
:1021C00031173125D3122D014007E47F01FEFD8038
:1021D00024401002122C3120331B17E47B01D1C89C
:1021E00050143117C3EF9401FFEE9400FEED9400FC
:1021F000FDEC9400311E2025037311102220BE3304
:10220000B401FDFC4007172E1EE47BE87A03F9F8C1
:10221000227C007D6402306D313CEF75F0A084219A
:10222000FC0ABAE064AA2411FFF022F11D21E500A6
:10223000E4412A01311D4B490154E721922B5102FF
:10224000FF74E0212D0805E02410F022EF64102037
:1022500012201701463225180431B1E47BFF208596
:10226000031CE431B02096029012182014201201B1
:10227000FAF9A00F0128EB202A4015002A3A920211
:102280000031B1201129A400F8203D209904919B30
:102290009041582C8E020AF1162008242B0141553A
:1022A00020070DE06403706990415AE06056904148
:1022B0005C4D8004121C0F800A600B040203121C88
:1022C00014401B229F01601F60C2024684E537EC68
:1022D0001264A4FFEF24A0FFE5F0340FFEE433FD09
:1022E000E433FC80213261F4029043612094416127
:1022F00006E4904365F061A5206322650651557F91
:10230000FD021DDB200C03E0B4040F40FA070712A6
:102310007586E4FF011C206E00222020401907640E
:102320000270227C447D12294A0519FDE4FBFAFD66
:102330004A2300E9404B41AD01D1DE41AB60504042
:10234000B40217FFFE213720B240312D64037F0312
:1023500080112E15000D404802B4040B4015017F7A
:102360000420470121B7601108010BF116919B7100
:102370009DE4200D21240547C3EFF0C229497F01C8
:10238000602043BC0512396CBF0108206F011DDBC2
:102390002B03202302E06008401D401002123F136F
:1023A000202F04E07002617D203D005C60AA036084
:1023B000025152401403FFB4010720130774018037
:1023C00009EFB40310400A0302F0719D2134047434
:1023D00004F0804A4625003740470D7020D229D1AD
:1023E000B5EF7011719D126A624071077D01123F55
:1023F000ED123F1B206B402A003A441609B4050534
:10240000E4F0121C0A719D408420732111002120E8
:102410004B605100582059018013608120490160B0
:102420000340962014415B20072B864A8321FE221D
:10243000490803F02271AD90415DEF20E901435F4F
:102440006399017FFF28A809E2E8494A4B60509050
:10245000436621FE20050CE0FEC3940E5040EE9131
:10246000D2E07032200F0491D07405F0245121C3C2
:10247000042DC690435A21C921C403E090435E2035
:102480002D015FE0563103D007B1C9202901E004D6
:102490004DC7400702F080B620AA018FEF55F62203
:1024A0006201478F216B0512A3E0904159A0B50549
:1024B00005F07FFE805F401820CD215A005C400768
:1024C00020B2005341482087E108DF2042047035E4
:1024D000121A7F2E6808602A302914121DF4EF2E7C
:1024E000B3201006600690479074FF21B980FCA1CC
:1024F000860290E0FF225B02121A89205D045DE0F3
:10250000FF91A82124085DF022AB07E4FF1BEB40FC
:10251000E1021CD1CFA31304EBB1AFF583C00B0FC5
:1025200091D2E4F07F0122E0FF75F00CA4241EF5A7
:1025300030D70430F58322D32E2D05E0940090008F
:10254000002005065002A1ACC2ADE02DD403904797
:102550008DCF56D500E4201839BA05D2ADF56DE51A
:102560006D41390202A196201B05F10FFCFDB1ADB2
:10257000205C0776685051E56DB1BB2484030AF4F2
:102580006007600A0114F06006056010E56DD1D0A7
:10259000215B6028042E1E8011E5204101E4F080BB
:1025A0000E63B402D126E02707104E6009D126122F
:1025B00077C6F9123043123EFE8022402103C083C9
:1025C000C082203B430B406F0028430E02122B9821
:1025D0003660404B0005208D40EB0202A10A201D11
:1025E000404407FF121A6622E56D7540DC00136057
:1025F000DC392A20E8001D600B20E8029043587760
:10260000AD05904357EFF0FB41EF012DC641290086
:102610001EA1258007807600E220F540E2256CA00F
:1026200070221501E0FF203A03E0FEB1BB2D2E0120
:102630004358621F02EED1286053C078001BE000AF
:102640006C044447F1B6EB26B8004C21C006904418
:102650004BE090444D2007014DE03256090E505A90
:10266000EFB1AFD1C1704B4018027E017033312001
:102670001A0291D0EE428D034449E0FF3345030531
:10268000125872295C010AE426A80043629A0144A8
:102690004A829A014447607A629A20500104FF20DE
:1026A0006422F9400A02F0809C200C01E0FF6317CD
:1026B000037F0030E22DA7002221A4279508FBFA12
:1026C000F9F8C3022D01EB61140017C0A704E47FE1
:1026D000D07E07C4C700E422FE624800FA824800A8
:1026E00010211E0378376009C120030AAF0222615E
:1026F0006A08E422E4FDFCFF0219FD637F00082064
:102700006F01464A401803FBAA06E42605200D4047
:10271000FC0BF125F1ACAC00AD01AE02AF0361C61C
:1027200006464A12798BF12C41C906D3122CEB7E56
:102730000050AEFA401D402D06D0E02FFFD0E03E05
:102740002028427A0253ECFC200905F1F35403429D
:10275000EC278C07EDF5AF75ED0275ED2EB91F6016
:102760000543EC08800353ECF790464DE0600443CA
:10277000EC042253ECFB227F807E387D01FC0201B9
:102780001E906405599A032220022A40A50630E1D2
:102790000AF1F050062EE10201800420051200EF3C
:1027A0004E7011121C6EEF700B126BABEF700511B7
:1027B00010212B248802A21322615F00EC28D20092
:1027C0007021E9010A7221C6040A71EDF05430400B
:1027D0000140F0521200703153201C457802A311C1
:1027E0004B200923D7018010200724D20404115361
:1027F0008005202F01116F400F029003C0203C0183
:1028000072E034A201F0D33994017D01207E0222CE
:10281000314C512A204D0C30E506114B7F1F8004AE
:10282000116FE4FF20E2018FE3602304E4FFEB601B
:10283000084A7701CDFD6A6F0843CD02ED6005536C
:10284000FBDF2CCA01FB20264C202A0243E1404832
:10285000940253E1BF61EC09FF20E20320E137312C
:102860001B70358E0828E0700122311B60112B820D
:1028700000192721013192200422E001800C401B25
:102880002013319E0128F040850240116F209007EF
:102890004A11537F059047C4347B0136A320072794
:1028A0000B53C5001B600A000341A30010600A011E
:1028B000050B5142014401244604312E22016930A6
:1028C0001801FDFC405A022DE2C3225A20450301A3
:1028D00043FB10409C01E640325D200807E5E12003
:1028E000E7FB43FB0D40B8090E80FE901249E0FD66
:1028F0007F01261800ED40C4030143AE0120C40847
:102900000153AEFE22EFB40114201E01EDF0A01819
:102910004972201804FD224354202DED0612AD0209
:1029200012AECFE4203C0180C122CE35040BFFEE75
:1029300034FFFEED34FFFDEC34FF2DD1305B04702D
:102940001031BE4F24BA6003047003D3800121A666
:1029500032B620121222AE0712413CEE04FEEF8E78
:10296000F084AFF02230110C745300062435092096
:10297000C211301323AF67900931430EEFC39E405D
:102980000AEF9ED394024010C21322401306F42F84
:10299000D394014002400D0103C4421A024C700A54
:1029A000200900EE42A200D352B10C03C4123F9F93
:1029B0006009CAEECAC9EFC924C20422D2ADD2BD91
:1029C00020FC05758E71756C0920080AE58E546F20
:1029D0004480F58E90462EA4F70422C0E0C0F04457
:1029E0006A05C0D075D008C041FB04E58E30E43DD7
:1029F000802C02EF4410802C032DC651E360340379
:102A00001E900000ADE501E56C35B8050559E56C93
:102A1000700D205D0B0567E5677002056680021585
:102A20006C403C028530E422390902438510056F71
:102A3000D0FFD0D044BD5B2A0632FF7E04FDFCE00F
:102A4000FC01E905122BA6E47B7D2414295A726847
:102A5000003EDA5602903CF3207004F1A0903D084D
:102A600040AD0A2DC6C0E4F5FFF5A490120E26076E
:102A700008903D037402F075FF0320080EE0FFF597
:102A800095EF14601314601C2402702720370B91FB
:102A90005FF1CF903CFF8016903CF7600B013D004A
:102AA000295C013CFB800B0801E0903D0CF0126EAC
:102AB00010200607E07005127796805C205524B63A
:102AC000204C021267E320700A915FFF903D0412D0
:102AD0006EBFFBC32A9901500A200C2012708F2070
:102AE0003307FF126C91903D02E021D008FDA22E29
:102AF000922C126DBEA3201E029045AD20B0204343
:102B00002020016E1D40070C9152FF126669127859
:102B1000ED60026114E000AF03F1F070186106206F
:102B2000680651CC7801122D12202C01913FA02B68
:102B30000970D91276BC400343F420205B022D12A9
:102B40006C2095208F01242022680A4E51E9E4FB75
:102B50007A04F9F851D7603607C22B1277769012B3
:102B600013288E28DC2C37058F828E83EF2D255479
:102B7000033EF583E023120813E02CF00DEDB412B0
:102B8000E723CF0525E025E02401201B584620A897
:102B900000EBE004104250332D27050322903BB296
:102BA000201E07903BC2127881F1A021C559060270
:102BB0000E903B34000BF0FB7A3B79C312663590E4
:102BC0003BCDE10594040FF0903BC4A0E2013BC46F
:102BD000E10792013BB2217A03D6903BBE219201DC
:102BE0003BB6800B00BF2192013BBA800B04C0E0D2
:102BF000903BD16192013BD1A192006CA192013B2B
:102C0000C44192003B2A09001D20744166013BC962
:102C1000E10298013BC920126198203900FF4198D8
:102C2000003B38B02035219A002F619A603B001498
:102C30008028A1A2201D61A22007C1A204E4600295
:102C400081A7602A0146A3E000C621A900132074D1
:102C50000151C7616D202EC1A402E470DE2017E18E
:102C60000E9502903BC5213FE100C4002F81C42096
:102C7000C10324FF922B201C20B021B622CC197551
:102C8000E5081277FCE59B30E7FBF155F1DD43D514
:102C9000047FC8F1689119F17A30A2053B79C2121C
:102CA0006760410401B401229500CC218F40098462
:102CB0004D0441D61267D329C900DC4184050000C8
:102CC000019041E0219C05F5FFE5D554C022D102D9
:102CD0005F2150261A20610253967F24BE0475D5C9
:102CE00004F17320070243D50840130194FB201818
:102CF00001847F207F0A98FF9041DAE5F4F075F4B3
:102D00009C201E06A3E5E4F075E425207B024179B2
:102D1000E041E30141E02F32046002E133F5202776
:102D200000D92FCE207020BC410C0025200A20E4C1
:102D300007E5A730E1FB43A702200D2018200D076F
:102D4000E005E47B018002E447E60AEF4BFFEE4A30
:102D5000FEED49FDEC482D9E402E20452994017042
:102D6000B8200D202E01781022F9077B6D7A4E795C
:102D7000C67841240702EF243922E3003042E30001
:102D8000FA4E400B2C31EE547FFEE4FDFC1277EF3F
:102D900080310DEB6FFFEA6EFEE8CDEFCDCCEECCCF
:102DA000EC209404D61257DEEF527C600902EDF15C
:102DB000EA228803E030E60620E60275968020D3FA
:102DC00002E4F5D520E202E0F5F4200B06A3E0F5DD
:102DD000E4126CDF40D6215261484027048EC812AD
:102DE000549F201E0A53D5FBF1E37F147E00F1832C
:102DF000245709439180227F3FFEF183F124CF02C3
:102E000003E591263F26220003379300022E861108
:102E1000400874FE2FFF74FF3EFEEFF592EE540F54
:102E2000F591201C270B03801268AD204A01438EC8
:102E3000267D020153DB817C0202F16621DC6012F7
:102E40000143DBA0940022445F2EB022A900C920D8
:102E50000601F17A202F20420103E420492B080AC1
:102E60000229A4E0F595E5F454072245DE047E54DA
:102E70007F74E427B400E429A806F00246369047A0
:102E8000C5281101392645EF053690392B118220CE
:102E90000C45150147C52733031A90392D220D2003
:102EA0001700E024A10C90392ECF124FF8EFF470E8
:102EB0003E8026402000FF201804802C90392440BA
:102EC0003D002A401103B4020FE4203302F0A3EEC8
:102ED000202804BFFF168174401500FF2208023924
:102EE000790140280575CF12304722666904E42233
:102EF000903DEC21F9413904BB0575BB8520B82014
:102F0000E206202B05124F739141470743D520302D
:102F10002B02214C202106538EF7438E077D3D5313
:102F20000CFF8DBCF5FF43B102E5B130E2FB200E92
:102F30000AAFDFEFFEACDEECFBEBFFED249500EA21
:102F40004495063DF5831182F5FF203501B1FD243E
:102F5000B3010CCA4068004C22260009222603A3B4
:102F60001182FD402900F4A02902E0C3133131038E
:102F700013FB316624CB03798B2BFF31381F31666D
:102F8000127866F0ED240490120DF0EDC394075012
:102F900017CFEDCF0DEF3167F5833174903D09F117
:102FA000E09F903DF0E09E50B6208021F622D504AF
:102FB000120DE0F5BC400D00BB4197219640630027
:102FC000F260630422904026E0250E01FFC3200931
:102FD000001D20F105904021122ED6400B2DA50199
:102FE0003FFA23CD00FD31CB05E034FF5EFEED243A
:102FF000590B4026127733604F31711277B3200C92
:1030000041B616904024913C9FEC9E50031275C728
:1030100091196022712BC004C0054A650551B36047
:1030200005711E54B6020091564A8810D005D0048E
:10303000123AF1317151956004914380644A1B0149
:10304000805E204241A60061206907913CEF9DEE21
:103050009C400A205C6BEB01800D201C00E021E10C
:1030600000A36D20E0265F6A7B04904022EE8F3241
:10307000971E638097D322EFF4045FFFE4FEEF70A6
:10308000037FFF22EFD3940F4009EFC4540FFFEEEC
:103090004428AE02D39403288F031313543F200F08
:1030A0000802FEEF30E1010EAF0621190225E09F74
:1030B00040E701E09E2005211901E2E46CAC400BE1
:1030C000A13137872E131FAA06EB241FFFE43AFE17
:1030D000EF7805CEC313CE13D8F9F9EB541F904700
:1030E000CBF0AF057123FC1EAF055166AE01EE14A7
:1030F000C39FC43354E0F9AF04C3EB9FFFEA9400CD
:10310000FEE9FDC3EF9DFF23720BFEED600FE0FDB6
:103110006007C374209D2A8E0D7D0080027D007C97
:1031200000EF2DFFEC3EFE2088052AE0FF5161EF05
:10313000403D200C0126E041B90090201405FD51CE
:10314000BC90402862BA21CB20210675F020A4FF54
:10315000AEF020A740A4042DE2022B8B25EF0590B2
:103160004465122ED6201400C02CF9200A33D90A47
:10317000681277DBD007217B914C12201904904113
:1031800068F0A32821014165218F03700281132477
:1031900009002020960540047F2080062016205D2F
:1031A0000290416721F402416212203E01416726EC
:1031B000D2051FF1E790415E222F0412713A400EB2
:1031C000204241AE02FEEF4E200920270667E0FFB5
:1031D000C39041664140044165E094002006202BE5
:1031E00000E220180212796C4075213A006030E745
:1031F00020272D810400904163E461AC0290416975
:1032000027CA02F0618620464D63429701B690209E
:10321000F3220B2049620D60DB02C6717921023076
:103220008E67DC00D320290126E04117263F005E8F
:10323000419E034162227E220322D602B6E92F3448
:103240007A00FA212960440142AA60440022241431
:10325000452A02A38009C40B072E91967F020230F3
:10326000474AE703FD902F0E404F00F5287465494B
:1032700008C2E17F1EF1AB30E707435101C2A180D4
:103280001301812285AE1D91FEAB94EF4B1267DBDB
:10329000CBEFCBFAE59130E71DB101A994E9F582B6
:1032A000EF4582FFEB28B30DEA3CF583C3EF95822F
:1032B000E5F0958340DE45710309CEECCE23C102D3
:1032C000124F76451A01AF9321BB0110A420BD0116
:1032D000464621CC4700247B0212620D50B126EEF7
:1032E00003E5F430E62006117FE87E03124F8312D7
:1032F0004F6CF16D400122C231B12AEF004627EF39
:1033000005627E53F4DFD2200E057F787E0091BAED
:10331000203B0453E4BFE5E4477C02EE7F8A20B7FC
:1033200009E608904647F1DEE4800A201B600A01A6
:10333000E5D9265B200C0543E4401276C269936010
:1033400054214A1B47C7E5F4F0E0547FF5F47F822F
:103350007E00F1D8F1625005E5FC20E6F730310837
:10336000201C00E02B6700F4408AE002192048038B
:10337000E5D520E720A304E5F4D330E64C15090A8F
:103380008EEFF0C232F183D21B200A07E09046C4D0
:10339000F0D21CA3585F060DF0D1AFE4900A21EFE4
:1033A00027CB0076200812E07070E5F754C060EF7C
:1033B000D187D19A6455704ED19A4183026F600EC5
:1033C000401C02F470394D120230E132401C04609E
:1033D00018E0FF643AFD04EF640A600D40253E8E5C
:1033E000048FE0FE6F702E10008F29750308F7E040
:1033F0006E200901701922F801809E200901800FBA
:10340000200408E0B454057433F0808D200B263E70
:103410000180852007261A00064141038000D1A2C1
:10342000400E06FF22E5F720E00840890B70F5FF0B
:103430002243F701AFF922D187201A05EFF022C20B
:103440001BE440C104C21CA3F0A3419AA0EC40DFDE
:1034500004201B02E152217E201F618928CF043005
:103460001C0543F43B140253F4BF222E0653F5F01F
:103470009046C5E025D307FBEA42F5EBF5F6D221ED
:1034800015047FC8124F68201C14E59320E604F150
:103490006240F4301C59E5F430E3047D28801020AC
:1034A0000800E240080007200807E1027D28124FCB
:1034B000E37F20040068202702FC7F7860080C501E
:1034C0002BF1A450F8F1B3EFC39D50F1200A00EDA9
:1034D00020BC01E5E8408F202C0180DF207941D518
:1034E000070643F420126759D3426306E591C330BF
:1034F000E701D320E50230E50F60E5407700F120D9
:103500002E00C321F402AFF4EF41F003303205EF97
:1035100041DEE109CF401105E43322FE91BA48872C
:103520000722F1EEAFD922E4FF404703600280F1A9
:10353000401D03D530E30D208900F420940160EF95
:1035400020080AEB22126239024F6CE0FBA340FC18
:1035500002F922FF21FD214B202B0EE4F5EA75EA4A
:10356000FF227E1E7F447B017D0A27FA01740387B8
:10357000FC0874E0FF0244A81FEFC331C2040BEF44
:103580001245AF2703032DC680056F07002225C211
:1035900040181313EF1244D2E05D7C00B505027CA5
:1035A00001EC2EFE0F80E725B1017D023BF200DC2D
:1035B0002FFF09031129AB071147EF2BFF314435CA
:1035C000C611C8A2AD9223C2ADAF67AE66A2239268
:1035D000AD2211613744090A0229C6AD07AC0611B4
:1035E000612585267C0008458B139CFE8013EDF435
:1035F000FDECF4FCED2401FDE43CFCED2FFF4583E4
:1036000004E4900909F02428080979189046BE12AC
:103610002ED620050591C9FF1244A8200804122EB9
:10362000B6E4023C250F0A3E122ED6D225C2EBE5A7
:103630001460026131E539D7231019718124E3D177
:10364000F51268CA718991BFFF9008F8F012609373
:10365000900A41EFF039F304E06EF1214099F22035
:103660001268970D0A794212550AE4337004D2EBBE
:103670006111401504246312798342E8004257C760
:10368000093CD2EB126848A21292ED20933400401C
:103690005F01F1E023CC0443150411A223BE040909
:1036A00018E0701580AB087C5F7DEE904453746425
:1036B0005C711391CFC322F1215005C23112558E96
:1036C0001265F3E5D120E028AF2F83409907C3941A
:1036D00003E49400502C204E0DB17179718024D8F0
:1036E00071792FFFE433FE260C0640EE648094804F
:1036F00040606A021277AA2068407E00D340DA0A4E
:1037000008F9E43ACFE9CFF5118F12803906F516A2
:10371000AE111271D0200C00B2201A058B1CF51DC1
:10372000891E200C204D0DF51F7189FA122A8FFD7C
:10373000ACF0546060406815D97179FF126808C216
:10374000257169FB7A009009197D181275B821B6A8
:1037500000EA2A7C0B2414FBE43EFA7D027F01413F
:10376000FD40A0413902751408216505F10E12656E
:10377000FF71605305FFAD161271EC201A57C00F90
:10378000247B01FD7139D3D1035005740112293D09
:10379000235E021278F63F270B2428FBE433FA7DE0
:1037A00003E4FF41FD602B0402702B713C202803D1
:1037B000400574FF802807E5D25480440AF5D240C2
:1037C0002D2078202D207806126912910580614AFB
:1037D0009E6057E0012E80C905441045F07F0537F3
:1037E00025000A233C6042024FF5D220750743D2E0
:1037F000807169FD7C00E00125346D13047F0A802F
:10380000027F05EF25E0FFEE33FEEF2DFBEE3CFAE5
:1038100022AB4064802727B907A2259224F1AC404F
:1038200006415E02C3221124970141E0218A00E58E
:10383000214901FAEF21E2401703D2EBD32280079E
:1038400004C322FF910A210F001226E30124B14094
:103850002320BD250F801000D8A01061C4B07EC009
:103860001B419A03FAE9240740220002E0013325B4
:10387000B4803B00042018275208A9122ED691B913
:10388000E92405476C01B1F0201001B1F8400A00AD
:10389000B2400A0891C99040B3F0E92406401114DF
:1038A000B4F091B97176049040B5F0C39040B0E0A7
:1038B00094029040AF27F7014028403F07037179F9
:1038C00030E103121928AE00AF2F8A229B05407900
:1038D000B19044E5205E039040AC123CD3021E8AB6
:1038E00022416500FF213C0275D102A29904FFF537
:1038F000D1EF604DD6214F00804CF70453D27FEBBF
:103900006040080343D104EDA008050822903E570B
:10391000122048013E5C609C023E61F0200A209C1F
:10392000013E62209C207902903E634011001241CA
:10393000240002400E00652C3E6A5C02903E6968DD
:103940000B04903E5FD1D9203406D189717914904F
:103950003E28BF405115B6903FA4122ED6AF059019
:103960003FA7ECD1C57A3E7961121CFF392634C3DA
:10397000203903D1D97F0041225CDF22D42CCD0530
:1039800090444E122EB6214E03904451EC551860CF
:103990001002D611AD200F02127768600D00B641FB
:1039A000C50591C6B4FF04E421CE0291C6FF204AAA
:1039B00001F21240BD00F780BD00FC207C00F74002
:1039C000BD00FD43B280B1003F293E023EF71240E8
:1039D000C020CF0214903F396A0039891201392B77
:1039E000A0C102FAD1CC604920B501B41280B50063
:1039F000B780B502FC121D3C1760B503392BD1CC42
:103A000040B5013FE120220D903FE4EDF0B1F771A8
:103A100079FC903FE9F0474A2BF300E83DDD04E5EF
:103A200091C9540C22B007027E01903FEBEEF022C8
:103A30005405903FEDF07E00268B037E02EE44217C
:103A40001000EC40260012A09002903FEE200E13D2
:103A5000E191C9649F702BE924017179B40405AF29
:103A600004121D0E2015202403903D2A12606E249E
:103A7000C2023D2DE4214A083F79E8121D1322A31A
:103A800012404106012233FEE0C39F246203F87412
:103A900080982282017312202D400508B6E51BD1C3
:103AA0003FB1F8D1F5400D0375A3D13D201208F1C7
:103AB000E7FAE513D13F718C200D01761C457600A5
:103AC000FA414920210C22904367122ED67A387988
:103AD000F5F105200B21440138F62141208F039098
:103AE00038F5F0201141DF069038F7F09038FA28C9
:103AF000040290436D402B02D1E6D137FD016A12DA
:103B000021B901198F200522FC2049016F1260495B
:103B100000FB4049006F404921970138FB3867207E
:103B20001E404400FD203E0075203E00FB803E020A
:103B30007280BF6187027B01226A64013926600EB0
:103B4000A00C0024800C62F9029009EE205A039028
:103B500009F122236200FA40BF06746BF0A3742FB0
:103B6000F05F5E0606E4FF021B7412408463A10A44
:103B700022C2EBA2ED9212C2EDE5F487BB25BE0690
:103B800004F1D9400330138FE31E9008F9E0FDFFE4
:103B9000C3740E1277E8EFC4F8540FC868FFEEC480
:103BA00054F048FEE51754F0D12B591F5002AF05D1
:103BB00022EF30E303AF1322AD1B201404EE30E0FC
:103BC0000BE517C394F05020F139801809E519600E
:103BD00006FDE4F51980128014201B2D17056004E2
:103BE000F19AAD0720390312603CFF2771084002AB
:103BF0007F0DEF901FA59329171F15015315DFF1B6
:103C0000601260A34004E4F5142243FA045315FB48
:103C1000302405126328800C7F55021270B16004B5
:103C200044A7281E02E024FF60EA0274012222BE9B
:103C300020F4474B0118F026BB0704F022AF14EF25
:103C4000C360289367D5000520CD2133608020050F
:103C500040A20D1F5317F0113CFE740FC39F400587
:103C6000EE2087080543170D8003EF4217802522B9
:103C7000CC01E5172DC800FE209C06C3932E229090
:103C800003C829D6010D8F2A720823E0F513121AF2
:103C900039D3222A92210B2024002F20C900102082
:103CA000C9000F202C00B320C9067E10EE60091E4B
:103CB000EE400C03B507F4EE60E6017E0D200F40E8
:103CC000E607EF24FD600680007E51F001FEAF2E76
:103CD0000D010A772428266701FF1127BC00788090
:103CE0000B20230213047026920176743A172AAD32
:103CF00003767408F02D3120070102F025D9011D4B
:103D0000BD202A22F5020A76E0347F09FBE49044C4
:103D10005FF011F250EA27A405445C1247B9EB2486
:103D2000220062228A01C2304B4E051257D8125728
:103D3000628B6A02F6510D3E3D07E4F5FC75FC40CE
:103D40008007200C01020221FD035990445D2A6383
:103D500001705829420553D5DF53FAFB204703E091
:103D6000FF517E4017200A0DB4080BE0124C52247C
:103D700052124AE68005400A04FFD16990443B553F
:103D800001F1B82032318302759B04A06A0275FCF0
:103D9000422BD301E10520720140F3209800E02A74
:103DA000D60403E59B20E780114009385D203000F0
:103DB0001F31F707D230804D5106D135406701FDE4
:103DC000903287025D701D206F06E0FF5106126E73
:103DD000CA401000FF401A4DFE05120FF0124C1998
:103DE000327625E5114479605168500FC3904461E3
:103DF000E09420904460E02F6A02E75106223D06DD
:103E00004F7A30300201FA20FF4D8572B0603003E6
:103E100062227FFA2AE003E5FC30E6608800F64083
:103E20000903037F032220BF2A61200A070222E53B
:103E3000D57F0030E7279F0B22904636EE125EC5F5
:103E40007A467938206803149046384DB405FF90BF
:103E50004637E09F201B03E09E400B400600FE20FB
:103E6000130C124F83221254FEAD94EF4DF1DB2C54
:103E70007B002B24E78354A0590002733205439A38
:103E800080EFF1E4267B19539A7FD322AF82AE8371
:103E90007D01900A26F1C5122ED6E5147077125FC7
:103EA00019A941201500E02058038E11F51244C8CD
:103EB000029008FA202207AE11AF127DAAD10B2082
:103EC000400A75D901F510E5155421602A2A090226
:103ED000E504E421A72CF6012BF02003378F04D151
:103EE000A5EF6009400A00C3229402EC7F02222C55
:103EF000055315DE9008F63C5401B40320DC027132
:103F000023D249A801D2EB47EC0222517E2367203D
:103F1000550553D1FD43D1012DFA29C300B1C9C2C2
:103F2000406BE0093929DAF90903614404047F028E
:103F30008009E100451F8F18E5186402600281388E
:103F4000E514122FE363A60163B90264200863C479
:103F50000963CF0A63DD070B63FB0C000065B72024
:103F60003C0C75C355151AE51A6002A1B7751440CB
:103F700004401229950009200F400A035575140AC0
:103F8000600A0890090AE0F5C375140B800D2D95A1
:103F9000400D0301751A1429E50212773A80410990
:103FA0000CA1B7AB1CAA1DA91EB129C701AF1F29BF
:103FB000C905125C0575FF0029B520ED20080171C7
:103FC0002B29F106A1B7C2EB7514002A75031268FC
:103FD0003A402075B9A501A1B720B72F1E03A1B79C
:103FE000F1BE401605E5107022B1CB2E1E085560BB
:103FF00004EFB4540BD2137A7006EFF0A1317510B0
:1040000002204D0175D9204B01E51029FD0364B153
:10401000E712265E4F020412708DF1F4213C0FEF7F
:10402000F0B1DBE0900AA0F0E0FFD3940940252036
:104030001201E0D33AA2060CEFD394AA7F002437F2
:104040000201800D201F20140040800E06EF600446
:10405000B1D28074401308F516127082901222EFCC
:10406000234406008516D975100360690003409D3E
:10407000206B025DF8F925ED606F01B1D22022407E
:104080005C2B700AE5D350055402FF8003540128CD
:10409000580D2E30E111C3900904E094FF900903FC
:1040A000200502501880233B010906200A029009CE
:1040B000052005015007A0FA0171322114420220A7
:1040C0004B01B1F6692E06C2EB431502B1CB22E9D2
:1040D000029012242389026EB1CA3CFE0423B1C4AB
:1040E000A3A3200700254007319F09901226E0FD79
:1040F000EE6D4F60162058000820520290090720EC
:1041000005E0005820150002200F0290090120054B
:10411000E0001501751060B10CB403071516B1DB92
:10412000E516F09003C32005FA04FC00FE60571B5F
:10413000FF85128285118322301305C2131256A205
:1041400022E5122407F582E43511F58343686DF703
:10415000232A002222B407E5D154FE4402F5D140BF
:104160000B07E9D12CEA540F42D6400BEA010005B7
:10417000D1F5FFEFD12C36830142D6202F07CFEDAA
:10418000CF8FD422F5D7200A0153D631C00346C1C0
:10419000F1D32565017C12363C06FE8D828C83EDC1
:1041A0002E2069316908E02FFF0EEEB412EC903A30
:1041B00023026F600A2028374A48252033033A1229
:1041C0002E1E22AA2008278E01A3A32E5608E4FC47
:1041D0007810122D128FE1401321222013379701FE
:1041E0007808401300E2601321533E353000013E51
:1041F000F0332620070341F0E5FA381C20472492CB
:1042000001E703268520930475E508F159200F0185
:10421000E61A201708904640E5DAF0E4F5DA200BBC
:1042200004E5D630E3FB2034037401F012B9120028
:10423000E4203B05038B95124C5125A0030BEBB4F6
:104240000322370C03759580124F55124FDD43D56D
:1042500004202E00E03F352FF700C8250D252D2521
:104260001C0746793FF16090463F314B053E700692
:10427000E04404333A21ED01463E268C3BE204B48F
:104280000102F1CC206E207A02E0F5DA201601E07E
:10429000FF41710553D8EF22C22A405E019B1F20C7
:1042A00005259F0CE020E71BE59A540FC3940240BC
:1042B0001231CC20A605FF75C2A143FC2371020375
:1042C000D22A45700009801F020540CD400D001123
:1042D000413B0275FC80668D263404E6FB302A03E0
:1042E00025E4405E028FDA2227E400C027E49487A9
:1042F00040131F43D81022EBF0A3EAF0A3E92224D5
:10430000FBFFE5F034FF22E033333354F8F5F422B9
:10431000C2AFEF094215D2AF22EF24FE600C20039A
:10432000050580007F012225D545E34421001324A3
:104330003B20D10108F827432EE2031930E507306E
:104340003703743AF022400604E6F022113AE20004
:10435000980422C39008FE22A9029008FD2005209F
:104360000D0109002007029008FF2005E00124014B
:1043700011CA655E27900655D4900AA1EFF0274D2B
:10438000018014200905E0B43312E4F0601701BF86
:104390000223DC00A121A2306A200825A404A1E0A8
:1043A000700D1232A1AF2F0137BF401220E781FA02
:1043B00000FC57540253D5EF87A221A861177F0B49
:1043C00004F4FFA3E06FE00003248D0309EF644AC7
:1043D0004492020A010F250900EF22BA0B1215E0E0
:1043E0003026044402F02254FD200E020919E02276
:1043F0006305227D0212376F891003900A79EF3727
:10440000EE0CFE60191460262402703BEB24025669
:1044100062147C007D501229C67D60801E3180C3ED
:1044200033CE33CED8F9FF20140228800EE0040FDB
:1044300006641229D8900A7A6193204B06E03194E1
:10444000C083C0825581010A7B3D29201A08318B27
:10445000122B8BD082D08339A201EB242D7956BF49
:10446000050322FFE03400231201FD227D410B0BE6
:10447000F582E43409F58322EF3194318602022D6E
:10448000883108020B31C22005020F31C9233C04D8
:10449000FDFC90091320414009E0010608A2EB92BF
:1044A00027C2EB7A08792DEA0B7D0CE4FF121B740E
:1044B000A22792EB2220170B28C2EBEBC0E0EAC048
:1044C000E0E9C0E04020115110D0E0F9D0E0FAD08E
:1044D000E0FB7F0C121B9CA22820272B2608449867
:1044E000022ED69045A712400501AAED337512D3CE
:1044F000941040037410F09045ABE0FF7A12792BD2
:104500005110201F01515420040012277E40150134
:10451000515A202B2C4B02FD02372BC008B6021B30
:104520009C7C0029F9EC2B4804901217E0442A7077
:104530004007055414FFBF140425CE2B1E60100144
:104540007F003FEE228411904158E0B4040D904169
:104550005DE06007517BEF70022D9E201320052047
:104560003E03C41354072009032EA2E070563205FF
:104570002E799A121AE8400E0844C0F0902EA5E059
:1045800054FE3785600B00A9400B08227405D39FA9
:10459000500B74634ABA0490415BEFF02004404A28
:1045A0000D45A2122E1E9045A6E054029012402006
:1045B000CE00A24159034173121D39DC0023200BA8
:1045C00018121D09903928122ED6123F5E7E1C7FCC
:1045D000E6121D27121B10EF54076B2A01021D3B28
:1045E0002208C6EFF078017C397D013949031312A6
:1045F00028D120110EE0FF7DF47C01021CFA021D7F
:10460000189041A16C55064DF0123FD971663AEAF7
:104610000614021A709041A320542CA2201410E911
:1046200024DC719245F06016123FD2E924E0F9E4EF
:10463000396F0A71A112517B719904123BD46BB18D
:1046400006022A8F7E127F94420C4BBE23830127E1
:10465000F0803B040F71C6700A6045020D71C630D0
:10466000D8814A03F9EA3402504D06021CEB021AC3
:10467000E8757F5B00E249BA3F6300E34524200709
:1046800003E1037F042007017F05817102EF6007CA
:1046900020270253E6BF24360B0243E64022EF14E4
:1046A000600F14601422F101188B4361048DFD2208
:1046B0008B9024D4038DC9228B3FAE07018DCA2273
:1046C000AF038FB0200903AF058FCB2B46005620D8
:1046D000D22034031114601820340A1E9173E5802F
:1046E0009179E5FD801C20090090200902C9801203
:1046F000200900A0200902CA8008200900B0200972
:1047000001CB022E30024459023077002957022093
:1047100045200B250501AF9145C809AF9222EF3026
:10472000E00E43F40120120243A404251D01962447
:104730003A15E000110008A01104E20943F4022038
:10474000230575961EEF30E3200C49A00175965D98
:104750001F0BEF5403600475D7122275D72D4053F9
:10476000027584E6204B0094404B019814601001C0
:10477000933F256D04759A4091DF4041019C932041
:104780002301A1A320040185312004058628E5FA30
:104790005430358800FA20E90275E74A211D027578
:1047A000DF49200B0143D325A4030153D3672034F1
:1047B0002136200B0275D825203001B503200401D5
:1047C000B215200401BA02200401AFB3200401CDC8
:1047D0000A200400CB40AC01CA12200901BF0E2000
:1047E0000406CC96F5FFF5BDF525EF008120040108
:1047F000AEE1200401DA55200401F580200400E92F
:10480000404401E9332009009726301101759B428D
:10481000759CA4759D29759E48759F2475A12F834D
:104820000612759AF8202D0C20CB019680464A0A74
:104830004440F022CCEFCCCFEDCF74228B05C8EFF3
:10484000C8088005C49609CDECCDEF5D601B302C07
:1048500018404C01DCAD400501DDCD20B802759A51
:1048600074200401948421F420170053400501DDD5
:10487000336017001440170004601701E465401707
:1048800001D647233000AC3D9A03A3124AC75F9C70
:104890000012200E04E0FBD1B1122343061210E0F7
:1048A000648060722949057F5039EBD1B164E23DE3
:1048B0005504EEC0E0EFC028F41F10E075F004A42A
:1048C000AEF0FBCAEECAEA3395E0F9F8D0E0FFD0CB
:1048D000E0FEC3EF9BFFEE9AFEED0599FDEC98809C
:1048E0002B4050803B02D1BFFB403401F4044036E2
:1048F000338D00EE203303FDFCEB2F548E05E93D94
:10490000FDE83CFC452F2079851C0001451C001268
:10491000251C05E0F8A3E0F9A356E3286000423126
:10492000F70F1211E0F46005A3E0B4FF0C904644C9
:104930007418233A0313F080104017200F201F0033
:104940001220070145F031582ABF030302703A20B4
:104950003608E0FE64086004EEB40439A90243742A
:10496000284E462007023AF0EF2DD01FFF122CDD13
:10497000E41278DCEF24D8FFEE343FFEED3493FDF3
:10498000EC3416FC7B007A80790378000012210B4E
:104990000177EF205200E0280E0544E0C31277E8CB
:1049A00023B508122BA6ECC0E0EDC0E0A10F401E1D
:1049B000201600FE204802D0E0FB657325790CF834
:1049C000EB2FFBEA3EFAE93DF9E83CF82072A02320
:1049D000042BA6EF2454206C0A0B124AE9E47BA8AE
:1049E0007A16F9F820653ADF009020AA0514605F76
:1049F00014601B269D040C24FC707C41B901CE314F
:104A000073A00975CE21F5FF8BCF22E4FA201404A0
:104A1000EA2440F5CE400703FFC3740720921174C7
:104A2000432FF58274183EF583E412703BC39DF565
:104A3000CF401C01244880240C901843113B2DF5D5
:104A4000CF0AEAB408C2632101CE01404B40542290
:104A5000B902EB25E0602F1675CE0FF5FFCFEBCF37
:104A6000EB75F003A4F5CF229325E0FDE433FC20A1
:104A70000E3B3E01AEF026F63B9206EBFFE4C3137D
:104A8000EF13424749902DD90E53FACFEFB40805E2
:104A900043FA308012EFB404200805208009EFB4F7
:104AA0000220080E108000D322E5F45418131313CB
:104AB000541FFF48CE0606FFBF06037F08A00A006A
:104AC0000464B3601500024E7E2629229A02E5D5C1
:104AD00020405823A701036043A5028FC3D3A4CE6F
:104AE0000243E610202024D503EF2275ED22CC00EE
:104AF000ED2EB103ED30E2FB200C02AFEF222002DD
:104B0000018FEF2010377B20072C430643EC042253
:104B100053ECFB800A0008200A00F7201D2C1540EA
:104B200005000460050501FF22903FF257E2139053
:104B30003FF7E0124FEA903FF8E09000020229A40C
:104B4000903B18228F02903B1C250608E4903B41C5
:104B5000F0D3903B204F6B023B1FE0357D000127D7
:104B60004A037A3B7921400E2891029042B3728A1F
:104B700040352667013C5A60385D8A000B203B04B3
:104B8000E0F58231BE2A53017F00400C012421420E
:104B9000DE003B2B4D016F60214040120104FF807D
:104BA0005E009F404E04940050C122203C0A8F8238
:104BB000758300022910903FF426DD00E4200629C9
:104BC000A804F5FFEFF5D820050253D60F2BBD3210
:104BD0009806F0C8E4C4540F488BE0028FD4F56BFC
:104BE000CC00D540282BD220282C0B00016A21565E
:104BF0000104E5D354074F318203B40109D244358F
:104C00000443AE4022C240080153AE262804C80126
:104C100022E5C8211F0175C8215700C8612200C8BC
:104C2000412201C0E043FF06C2AFC0FF90342126FD
:104C3000AE09758DC1758B7FD0FFD2AF43B51AD049
:104C4000E032EF600A75F28075F24043F14022E5F0
:104C5000F130E70653F17F43F180200A03E308E5D2
:104C6000F23D2C0275F2C021DD0151BA2FAA02B12A
:104C700051AD200900666DE5202321D0260D008E60
:104C80002030022275F226A6066003D2EA22C2EA8A
:104C90002008201D04012253F1FEE0035120BA0731
:104CA000080751FD4403F584200A0004400A00026D
:104CB000600A0002400A0001600A01010620520257
:104CC0005384FC405903E58454FC403F01E40F2029
:104CD000132002025385F02005018F86401B0AEF46
:104CE000540FFDE58554F04DF585201305EE713028
:104CF000F58622615000EF41500722E5F2C330E60D
:104D000001D321430268F56940C4022675F220D11F
:104D10000BAFF330E4077568008F6980107E5A0688
:104D2000F56985F068E5F22D4A0869AE68AF692239
:104D30007EFF7F2161477E0201438422A42074010B
:104D400084FB600604853FEF428520B6000120D930
:104D5000001020D922A4600B22A500F122A505B4E1
:104D6000020343F1082012070353F1F7EFB40305E0
:104D7000200D01800720E50008200F210B02803F55
:104D8000ED200B204F104385208014EDB4010791D6
:104D9000115384F78009ED236D079111438408EBCB
:104DA000B410401F075385EF800AEBB42041070180
:104DB00043854734059046BDE0F58EA16D025385CD
:104DC000DF20440022274807FFE58954FC4FF5897E
:104DD00020AE0204438920860D89FB22AF8CAD8A68
:104DE000EFB58C04FEEDFF200B03EFFEAD8A20082B
:104DF00021110030402C00CF602C0324FF92AB60C7
:104E000005008E80380040203808BF22AF8DAD8B62
:104E1000EFB58D8038008D2038008B203820680455
:104E2000EF4420F5A440080243A410400603E5A483
:104E300054102051204400E9400E407A02A411226F
:104E4000201C23D90243F602205248B90143F644FC
:104E50000B070253F6FE22AD07AC40C905ECF5A9DD
:104E6000EDF5A7403206AFA9EFFEE5A7FD805E068F
:104E7000AFA6E5A570011F206F08A5ED24FFFDE496
:104E800034FF4E40BA40780354C4442A807A018FDC
:104E9000A928D4603B01E5A928990290459F235F8A
:104EA00001E5A728AD416E00D22DC7245101C820CD
:104EB00042EF004022FE22C402C85480242102C8CE
:104EC000542020AA2169208A02438F4020550202E3
:104ED000538F23290EFF02EF4440F58F227FFFB14D
:104EE00072E5C82022DF01FF0228E203E04480FFD0
:104EF000C00E0B8F91229400904468F0A3CEF02650
:104F00004D03007900222D3E0052207702E922FF56
:104F1000200505A801AC02AD034A33201104240288
:104F2000F9E43A80097A390122E032FF2C7D3D48CC
:104F30006C6800A378F52C4200FC2F5B04F5828C92
:104F40008322268F0142B32DB62CF30829F9EA3CBF
:104F5000A801FCAD032049020228D12A2C0EFFFA39
:104F6000022ED675F002A4F58285F0832224A900D2
:104F70001224A901452D2015204B03EDF0E4A32BAD
:104F8000F5806E0005207803FA22EFC445A20001E7
:104F90008012010622215A60766086205E053EFA64
:104FA000227C00FF488701A8073A15010003251F4E
:104FB000808B4031200F00222CFF03D3022D0124CF
:104FC000FB057810022D127D339302021B74209092
:104FD00001740121642CAB00136CAB20EE03AE0214
:104FE000AF0120062C880209EE12255A20C9017E45
:104FF00000806D0BA3F07F0F7E1D021BDD7B01A3E4
:1050000020AA49C50095290B000E32184EC7091277
:1050100037DE9003C2E09003C7312502C204F02FAF
:1050200065207E05D6022EEB7B01406D068F828EB9
:1050300083A3A322201F0AE0FD75F0AA9003CC12DF
:105040002EAA546720B107061229A4ED900007206C
:10505000B80012216F002D6CBA01240B60FC029085
:105060000A0F6147615C004C8F6D094E2274FFF599
:10507000F0122A6345583E067F07021B9C7F042DD1
:105080004459CC01FF2225CF259A00EF204C0290F5
:10509000001340E100A461AF219B09A3E0FB025093
:1050A00004125089E4256C0ABD54F84404F5BD226D
:1050B000AF03A32FB100EF2B530AED7404F0023FAE
:1050C00084F5FFF59622A00575D70975F41860C31D
:1050D0000128F7408A007426780C92903FFAE09FEE
:1050E000FF903FF9E09EFE20B92012605D02AA0603
:1050F0002221EE203F002240E72729406F2C5B0051
:10510000CF20590EF0229FFFE49400FE22C8ECC885
:10511000C9EDC92994284E22A53099030475FC4194
:1051200020083821020CF9E421E905C3E99FF9EAD6
:105130009E20FB00FF288203FFFE228D224C0202EC
:10514000304720E30306021B9C353D29F300042170
:10515000CE04C6EC4D4E4F21A5047D01021BC96152
:105160009E02AA06F921B7652000682018001241A6
:10517000BBA22601F5834021A29E20E6009F21BD0F
:1051800001242C606F262E226D002223743096009D
:1051900022227608FBFAF922EF9DFFEE9C60B722EF
:1051A0003B07022D58E99582EA953644012ED62E0A
:1051B000F80022214702FEC39F200D06B6740502A7
:1051C0002992FE200800EE20072006611F17A80480
:1051D000A905AA06AB07227B64FAF9F8022BA69070
:1051E0003BC4E0FF14F0215F013D0380087E7202A2
:1051F00014F5D220F5000A6085203B04E92FF9EA76
:105200002241F6216B03E09000062156067C002423
:1052100000FFEC3E4095400105227E001228D1207F
:10522000E3209400E4201E00F5335C0283F5832024
:10523000E4065CFEEF5D4E22FF217F233E23C60481
:105240007FC0740193431203EC35F0FE205C00D65E
:1052500044A200224A0103022B8BFF79122016067A
:10526000535E74FFFDFC222046013407204602E015
:10527000C31323D4021322FFE0FD00E0FD00E0FD94
:1052800000E0FD00E0FD00E0C30011020002120B8F
:10529000120F02060702121113BC01B006200912F8
:1052A00013C1142A006E04010102142F143D0013CF
:1052B000FF0101E609110E7FC67D997B99669B036C
:1052C0007102071827FFE03000089042277420F091
:1052D00090422147A0AA46488C3F1F064227E0FB88
:1052E000904223515F11F582E9F5837880EBF9E074
:1052F000A3F608D9FA904225E001150030C0153018
:105300002700F9204800E0279E03FAF582EF306B72
:1053100004F0A3D9FCEA600A11EBFE7980E4FAEB11
:10532000FC7830C083C082E6F5F0E72A1F122FFD1B
:10533000E435F0FFEA2DF0E43FFAA308DCE9EAF0F7
:10534000D0371407A309DED5229042EBE00A900083
:10535000F1409000ED51ED02F582EA609000FA40D4
:105360009000DA209000EFE001150030E001150018
:10537000EBE0001510C378807930E709FFE6083FBD
:10538000F0A3DBF6E4332FD80142F4E00A6300FA1D
:10539000406300F6E0003720F4E0006300F8E0012D
:1053A00015E0026300F4E00015E00163009FE000F7
:1053B000630143BFE00263029043C43FC30143C1A2
:1053C000E00031027880EDA05D03EBF404FB202CBB
:1053D0004A6202F582EC401900E020AB0A6FFEEB56
:1053E0005EFEEF6EF0A3DDF1370E04E1EFF07B021D
:1053F0002C280102A328511F80639041E8123F9F8F
:1054000060679041E212A42CE924FB9041E51275FB
:10541000F31276927A4179EA06123F7E9041EAE0F1
:10542000285100FF202808E0B5061DA3E0B50718A5
:10543000202301D18F28F20212AE09205020110042
:1054400008201104022EB680204025802D03E3128F
:105450009906405435A4604B20660C7E80910275FD
:10546000867E7F7F9C903D4D60D10CF5828E83B10E
:1054700013E94A4B606FB11F4027023D7950202746
:1054800001B12B200D0878111275B0903D4A123FE2
:10549000950602123F76903D58405A0B1279546F90
:1054A0007003E4936E7F006037F402903D4F310F3C
:1054B000013D4A608F00FE6026014FE0202A051260
:1054C000765A907FC22940006D402C016C7E202CC2
:1054D000037E01EF4E201D01F06056CB0312FCA4A9
:1054E000F04C242D1E1301E02DFD903D52E03CCDEB
:1054F0002402CD3400FCB141B11F20920B70026137
:1055000084617712E504947EEC34A0020281DE40CF
:10551000334AC980B1003920A320D9E002B1007616
:1055200040B410B125903D47122EB6C003C002C052
:1055300001B10DD3428E1FD0E01278A6400F91FB2F
:105540001297FB800812FD6F127585B125B12B12E1
:10555000FD269E4038B10D0612FD00CF24FBCF2B57
:105560002A0AC00612758612FCDEF0D00629DA403F
:10557000190238E03A801B01B134200E60710652E6
:105580001298D412535B21450474FF75F0F62C4039
:105590000141DB400C007F2BBA017EF040B2009C41
:1055A00020B2004020B220150112FB395F06DF90C7
:1055B0003D44122ED64BD40A74069324FEFE740585
:1055C0009334FF20F54E380912B007FF740493900E
:1055D0003D506BE620072212037002817B403D0F95
:1055E000ADAC74079324FC6022146030240370482F
:1055F0002DE62E6520BC030DC3EF99358602CF241E
:10560000FE20B72033018020201A0060801A061285
:10561000FCEF34FF800F60100040402B60104AD830
:10562000031275A6FA208B02800AE4203202127857
:105630008F612C00D6600500B6418F09B10DE96F6E
:105640007002EA6E6005612C408101549620813F12
:10565000F4091C7E007F097D54123FED2008020AE8
:105660007DA52008E1084B0047206A01FD00E10DFF
:1056700045413F02E924FE6EB92082001240764087
:105680005D0312FCBDF0E10157027402F0217820A5
:10569000193FAA000A215901618E212501741421A4
:1056A000590143F02077000020D3E100803CF5E071
:1056B00001B902903D5462D3205A230A20B205FF5B
:1056C00031AA903D4160660041201120290002402E
:1056D00072005042C507FF22FE903D53E0296278D8
:1056E000083AFC90416A1275C2A3254401A3743A9A
:1056F0005201416E20F410E4937002C174E493FFF0
:10570000541F90417012FC4D2F3E1F5407122FE37F
:10571000858A00858C01858E0285960385A2048585
:10572000AA0585B90685C4070000850C4F80168040
:105730001C904171E024038029804605D175240422
:105740008012601302028015E000130503FFE43E9F
:10575000C16A6016030112FD90400A026E1275388C
:10576000050393FB7A00401607FEE42BFFEA3ED1C7
:1057700086221C00FE401B01ADAE4222084172127F
:105780007636D390416B34440E416AE09E5065906A
:10579000416C1251749041734011007220110453F6
:1057A000E49041742CEA40B440180075401800742D
:1057B0002018003A449700FD4029012DFF402A009F
:1057C0003C2057036FE024052472006E3CB50B8B20
:1057D00082F583E5822DF582E5833C25F60493FD71
:1057E000121B8D20380412ADD980B44090012405DD
:1057F00020A7202A008F4F3001A14F2DF30293FDE7
:105800007CA0AA002D2D60204D0070426170F70130
:10581000E924219A0709971247B612FCCC6E53026D
:1058200090076A418A050999E09007733C8C0E083D
:105830005003028CE5EF240712A90212FD88600DC7
:1058400003E49007713EB908F6E0900665F012A4F3
:1058500010404104A8FAFF540F37E60602E181EF39
:1058600030E755201221BD01240920350530E30E13
:10587000EF240A20080512A3B512A3DA55780912FD
:10588000DDE012979DE92401F92F05029009A1207E
:105890007CA02A000F802A00C4340DE0012B0B3AB3
:1058A000FAE92FF9EE800E129446E920270194358B
:1058B0002005803900A460AB14A112C17DFF601BDC
:1058C00064186017EF64076012EF6403706D2016B0
:1058D00010D18F1297B012A40970607FFE121BF1D5
:1058E000805920950912A8FA540FFF6405701CA076
:1058F0004D058D03541F703F600C0011205A061295
:10590000A85DFA802AEF2347002260130008602078
:105910003115600D060912979B1294398008048096
:1059200003127586C083208904B6900A021222BA37
:10593000208F400B060512944312E4693543214041
:105940000290099A40140A09C8122ED612F5B31211
:105950009A84604F0604B103900762F0214700E08B
:10596000213B004821570CE030E041E4F55FE55F62
:1059700012FC07FF201B07E0FEEFB50608E55F33CA
:10598000A10307800705201802B402E2402F0CFD96
:10599000A207E43325E0FFE433FE7480587100076A
:1059A000387106EDF0A207B3920740470420E202E7
:1059B00021393FF308CBB490099D12C7D870200E4F
:1059C0000712BE967F0312902F607B0505B103304E
:1059D000E40D201206E924B7B10344103015600C21
:1059E00003B1125EF5403201FB76600E00DC4169C6
:1059F0000C741975F06C122B3F900772E0FF601663
:105A000003BA129456402501975436CC608F021287
:105A1000C5ABE0005701E50F602440570020205738
:105A200004803290076D21A4036401702821F508D9
:105A3000B1036418701F9007702263006D3E890ADD
:105A40001297A9B103FF125F9A8F193CBC06FDFFA4
:105A50001260768F1920401012C15920100312CC09
:105A600029900766E0700241EA40D708544264403A
:105A7000701C903D5E2011146103E412FD66B10BB1
:105A800024BCB10354F0FD7C0012A8D46121512044
:105A9000FD03E1024129214704B10B4A6069608896
:105AA00000FF429E01705D229C0051203000D820F2
:105AB0001002D3940A26AE00E5200D203E01FEEE32
:105AC000227205B40F028026EFE000170312C7DF31
:105AD000ED325A0E29F9E5833AFA1228F7F55FEE0E
